{
  "address": "0x9fE46736679d2D9a65F0992F2272dE9f3c7fa6e0",
  "abi": [
    {
      "inputs": [
        {
          "components": [
            {
              "components": [
                {
                  "components": [
                    {
                      "internalType": "uint256",
                      "name": "cardId",
                      "type": "uint256"
                    },
                    {
                      "internalType": "uint8",
                      "name": "mainType",
                      "type": "uint8"
                    },
                    {
                      "internalType": "uint8",
                      "name": "secondaryType",
                      "type": "uint8"
                    },
                    {
                      "components": [
                        {
                          "internalType": "uint8",
                          "name": "hp",
                          "type": "uint8"
                        },
                        {
                          "internalType": "uint8",
                          "name": "attack",
                          "type": "uint8"
                        },
                        {
                          "internalType": "uint8",
                          "name": "defense",
                          "type": "uint8"
                        },
                        {
                          "internalType": "uint8",
                          "name": "spAttack",
                          "type": "uint8"
                        },
                        {
                          "internalType": "uint8",
                          "name": "spDefense",
                          "type": "uint8"
                        },
                        {
                          "internalType": "uint8",
                          "name": "speed",
                          "type": "uint8"
                        },
                        {
                          "internalType": "uint8[4]",
                          "name": "pp",
                          "type": "uint8[4]"
                        }
                      ],
                      "internalType": "struct ToshimonState.Stats",
                      "name": "baseStats",
                      "type": "tuple"
                    },
                    {
                      "components": [
                        {
                          "internalType": "uint8",
                          "name": "hp",
                          "type": "uint8"
                        },
                        {
                          "internalType": "uint8",
                          "name": "attack",
                          "type": "uint8"
                        },
                        {
                          "internalType": "uint8",
                          "name": "defense",
                          "type": "uint8"
                        },
                        {
                          "internalType": "uint8",
                          "name": "spAttack",
                          "type": "uint8"
                        },
                        {
                          "internalType": "uint8",
                          "name": "spDefense",
                          "type": "uint8"
                        },
                        {
                          "internalType": "uint8",
                          "name": "speed",
                          "type": "uint8"
                        },
                        {
                          "internalType": "uint8[4]",
                          "name": "pp",
                          "type": "uint8[4]"
                        }
                      ],
                      "internalType": "struct ToshimonState.Stats",
                      "name": "stats",
                      "type": "tuple"
                    },
                    {
                      "internalType": "address[4]",
                      "name": "moves",
                      "type": "address[4]"
                    },
                    {
                      "internalType": "address",
                      "name": "statusCondition",
                      "type": "address"
                    },
                    {
                      "internalType": "uint8",
                      "name": "stausConditionCounter",
                      "type": "uint8"
                    },
                    {
                      "internalType": "address",
                      "name": "specialStatusCondition",
                      "type": "address"
                    },
                    {
                      "internalType": "uint8",
                      "name": "specialStatusConditionCounter",
                      "type": "uint8"
                    },
                    {
                      "internalType": "uint8",
                      "name": "activeMoveIndex",
                      "type": "uint8"
                    },
                    {
                      "internalType": "uint8",
                      "name": "activeMoveCounter",
                      "type": "uint8"
                    }
                  ],
                  "internalType": "struct ToshimonState.MonsterCard[]",
                  "name": "monsters",
                  "type": "tuple[]"
                },
                {
                  "components": [
                    {
                      "internalType": "uint256",
                      "name": "cardId",
                      "type": "uint256"
                    },
                    {
                      "internalType": "address",
                      "name": "definition",
                      "type": "address"
                    },
                    {
                      "internalType": "bool",
                      "name": "used",
                      "type": "bool"
                    }
                  ],
                  "internalType": "struct ToshimonState.ItemCard[]",
                  "name": "items",
                  "type": "tuple[]"
                },
                {
                  "internalType": "uint8",
                  "name": "activeMonsterIndex",
                  "type": "uint8"
                }
              ],
              "internalType": "struct ToshimonState.PlayerState[2]",
              "name": "players",
              "type": "tuple[2]"
            }
          ],
          "internalType": "struct ToshimonState.GameState",
          "name": "state",
          "type": "tuple"
        },
        {
          "internalType": "uint8",
          "name": "mover",
          "type": "uint8"
        },
        {
          "internalType": "uint8",
          "name": "monster",
          "type": "uint8"
        },
        {
          "internalType": "bytes32",
          "name": "randomSeed",
          "type": "bytes32"
        }
      ],
      "name": "applyItem",
      "outputs": [
        {
          "components": [
            {
              "components": [
                {
                  "components": [
                    {
                      "internalType": "uint256",
                      "name": "cardId",
                      "type": "uint256"
                    },
                    {
                      "internalType": "uint8",
                      "name": "mainType",
                      "type": "uint8"
                    },
                    {
                      "internalType": "uint8",
                      "name": "secondaryType",
                      "type": "uint8"
                    },
                    {
                      "components": [
                        {
                          "internalType": "uint8",
                          "name": "hp",
                          "type": "uint8"
                        },
                        {
                          "internalType": "uint8",
                          "name": "attack",
                          "type": "uint8"
                        },
                        {
                          "internalType": "uint8",
                          "name": "defense",
                          "type": "uint8"
                        },
                        {
                          "internalType": "uint8",
                          "name": "spAttack",
                          "type": "uint8"
                        },
                        {
                          "internalType": "uint8",
                          "name": "spDefense",
                          "type": "uint8"
                        },
                        {
                          "internalType": "uint8",
                          "name": "speed",
                          "type": "uint8"
                        },
                        {
                          "internalType": "uint8[4]",
                          "name": "pp",
                          "type": "uint8[4]"
                        }
                      ],
                      "internalType": "struct ToshimonState.Stats",
                      "name": "baseStats",
                      "type": "tuple"
                    },
                    {
                      "components": [
                        {
                          "internalType": "uint8",
                          "name": "hp",
                          "type": "uint8"
                        },
                        {
                          "internalType": "uint8",
                          "name": "attack",
                          "type": "uint8"
                        },
                        {
                          "internalType": "uint8",
                          "name": "defense",
                          "type": "uint8"
                        },
                        {
                          "internalType": "uint8",
                          "name": "spAttack",
                          "type": "uint8"
                        },
                        {
                          "internalType": "uint8",
                          "name": "spDefense",
                          "type": "uint8"
                        },
                        {
                          "internalType": "uint8",
                          "name": "speed",
                          "type": "uint8"
                        },
                        {
                          "internalType": "uint8[4]",
                          "name": "pp",
                          "type": "uint8[4]"
                        }
                      ],
                      "internalType": "struct ToshimonState.Stats",
                      "name": "stats",
                      "type": "tuple"
                    },
                    {
                      "internalType": "address[4]",
                      "name": "moves",
                      "type": "address[4]"
                    },
                    {
                      "internalType": "address",
                      "name": "statusCondition",
                      "type": "address"
                    },
                    {
                      "internalType": "uint8",
                      "name": "stausConditionCounter",
                      "type": "uint8"
                    },
                    {
                      "internalType": "address",
                      "name": "specialStatusCondition",
                      "type": "address"
                    },
                    {
                      "internalType": "uint8",
                      "name": "specialStatusConditionCounter",
                      "type": "uint8"
                    },
                    {
                      "internalType": "uint8",
                      "name": "activeMoveIndex",
                      "type": "uint8"
                    },
                    {
                      "internalType": "uint8",
                      "name": "activeMoveCounter",
                      "type": "uint8"
                    }
                  ],
                  "internalType": "struct ToshimonState.MonsterCard[]",
                  "name": "monsters",
                  "type": "tuple[]"
                },
                {
                  "components": [
                    {
                      "internalType": "uint256",
                      "name": "cardId",
                      "type": "uint256"
                    },
                    {
                      "internalType": "address",
                      "name": "definition",
                      "type": "address"
                    },
                    {
                      "internalType": "bool",
                      "name": "used",
                      "type": "bool"
                    }
                  ],
                  "internalType": "struct ToshimonState.ItemCard[]",
                  "name": "items",
                  "type": "tuple[]"
                },
                {
                  "internalType": "uint8",
                  "name": "activeMonsterIndex",
                  "type": "uint8"
                }
              ],
              "internalType": "struct ToshimonState.PlayerState[2]",
              "name": "players",
              "type": "tuple[2]"
            }
          ],
          "internalType": "struct ToshimonState.GameState",
          "name": "",
          "type": "tuple"
        }
      ],
      "stateMutability": "pure",
      "type": "function"
    }
  ],
  "transactionHash": "0xfd70a8d4d1a6c1d99db78e2a5c5cd87abd719e1c5b2061e50923bc564877a5e3",
  "args": [],
  "numDeployments": 1,
  "solcInputHash": "c2515da85d5a797d96ca5d49a9532dc5",
  "bytecode": "0x608060405234801561001057600080fd5b50610cd2806100206000396000f3fe608060405234801561001057600080fd5b506004361061002b5760003560e01c8063ba96c4b114610030575b600080fd5b61004361003e3660046106e3565b610059565b6040516100509190610b92565b60405180910390f35b61006161014b565b845160009060ff86166002811061007457fe5b602002015151805160ff861690811061008957fe5b602002602001015160800151600001519050600086600001518660ff16600281106100b057fe5b602002015151805160ff87169081106100c557fe5b6020026020010151606001516000015190506100ea82601e0160ff168260ff16610131565b875160ff8816600281106100fa57fe5b602002015151805160ff881690811061010f57fe5b60209081029190910101516080015160ff919091169052509495945050505050565b60008183106101405781610142565b825b90505b92915050565b604051806020016040528061015e610163565b905290565b60405180604001604052806002905b61017a610190565b8152602001906001900390816101725790505090565b60405180606001604052806060815260200160608152602001600060ff1681525090565b60006101c76101c284610bcd565b610ba3565b905080828560208602850111156101dd57600080fd5b60005b85811015610207576101f2878361034e565b835260209283019291909101906001016101e0565b5050509392505050565b600061021f6101c284610bee565b8381529050602081018260608502810186101561023b57600080fd5b60005b85811015610207576102508783610457565b83526020909201916060919091019060010161023e565b60006102756101c284610bee565b838152905060208101826104208502810186101561029257600080fd5b60005b85811015610207576102a787836104ae565b83526020909201916104209190910190600101610295565b60006102cd6101c284610bcd565b9050808260005b8581101561020757813585016102ea88826105c5565b84525060209283019291909101906001016102d4565b600061030e6101c284610bcd565b9050808285602086028501111561032457600080fd5b60005b858110156102075761033987836106d8565b83526020928301929190910190600101610327565b803561014581610c6a565b600082601f830112610369578081fd5b60046103768482856101b4565b949350505050565b600082601f83011261038e578081fd5b8135610376848260208601610211565b600082601f8301126103ae578081fd5b8135610376848260208601610267565b600082601f8301126103ce578081fd5b60026103768482856102bf565b600082601f8301126103eb578081fd5b6004610376848285610300565b803561014581610c81565b803561014581610c8a565b60006020828403121561041f578081fd5b6104296020610ba3565b9050813567ffffffffffffffff81111561044257600080fd5b61044e848285016103be565b82525092915050565b600060608284031215610468578081fd5b6104726060610ba3565b905060006104808484610403565b9082015260206104928484830161034e565b9082015260406104a4848483016103f8565b9082015292915050565b600061042082840312156104c0578081fd5b6104cb610180610ba3565b905060006104d98484610403565b9082015260206104eb848483016106d8565b9082015260406104fd848483016106d8565b90820152606061050f84848301610642565b908201526101a061052284848301610642565b6080830152506102e061053784828501610359565b60a08301525061036061054c8482850161034e565b60c083015250610380610561848285016106d8565b60e0830152506103a06105768482850161034e565b610100830152506103c061058c848285016106d8565b610120830152506103e06105a2848285016106d8565b610140830152506104006105b8848285016106d8565b6101608301525092915050565b6000606082840312156105d6578081fd5b6105e06060610ba3565b9050813567ffffffffffffffff8111156105f957600080fd5b6106058482850161039e565b825250602082013567ffffffffffffffff81111561062257600080fd5b61062e8482850161037e565b60208301525060406104a4848285016106d8565b60006101408284031215610654578081fd5b61065e60e0610ba3565b9050600061066c84846106d8565b90820152602061067e848483016106d8565b908201526040610690848483016106d8565b9082015260606106a2848483016106d8565b9082015260806106b4848483016106d8565b9082015260a06106c6848483016106d8565b9082015260c06104a4848483016103db565b803561014581610c93565b600080600080608085870312156106f8578384fd5b8385013567ffffffffffffffff811115610710578485fd5b61071c8782880161040e565b945050602061072d878288016106d8565b935050604061073e878288016106d8565b925050606061074f87828801610403565b91505092959194509250565b600061076783836107b0565b505060200190565b600061077b8383610993565b505060600190565b600061078f83836109ca565b50506104200190565b60006101428383610ab3565b60006107678383610b89565b6107b981610c39565b82525050565b6107c881610c1b565b6107d28184610c2b565b92506107dd82610c12565b60005b8281101561080a5781516107f4868261075b565b95505061080082610c15565b91506001016107e0565b5050505050565b600061081c82610c21565b6108268185610c30565b935061083183610c15565b825b8281101561085d578151610847878261076f565b96505061085382610c15565b9150600101610833565b5093949350505050565b600061087282610c21565b61087c8185610c30565b935061088783610c15565b825b8281101561085d57815161089d8782610783565b9650506108a982610c15565b9150600101610889565b60006108be82610c25565b6108c88185610c2b565b9350836020820285016108da85610c12565b845b8481101561091257838303885281516108f58482610798565b93505061090182610c15565b6020989098019791506001016108dc565b50909695505050505050565b61092781610c1b565b6109318184610c2b565b925061093c82610c12565b60005b8281101561080a57815161095386826107a4565b95505061095f82610c15565b915060010161093f565b6107b981610c44565b805160208084526000919084019061098a82826108b3565b95945050505050565b805161099f8382610b80565b5060208101516109b260208401826107b0565b5060408101516109c56040840182610969565b505050565b80516109d68382610b80565b5060208101516109e96020840182610b89565b5060408101516109fc6040840182610b89565b506060810151610a0f6060840182610b02565b506080810151610a236101a0840182610b02565b5060a0810151610a376102e08401826107bf565b5060c0810151610a4b6103608401826107b0565b5060e0810151610a5f610380840182610b89565b50610100810151610a746103a08401826107b0565b50610120810151610a896103c0840182610b89565b50610140810151610a9e6103e0840182610b89565b506101608101516109c5610400840182610b89565b8051606080845260009190840190610acb8282610867565b91505060208301518482036020860152610ae58282610811565b9150506040830151610afa6040860182610b89565b509392505050565b8051610b0e8382610b89565b506020810151610b216020840182610b89565b506040810151610b346040840182610b89565b506060810151610b476060840182610b89565b506080810151610b5a6080840182610b89565b5060a0810151610b6d60a0840182610b89565b5060c08101516109c560c084018261091e565b6107b981610c12565b6107b981610c62565b602080825281016101428184610972565b60405181810167ffffffffffffffff81118282101715610bc557610bc5610c68565b604052919050565b600067ffffffffffffffff821115610be757610be7610c68565b5060200290565b600067ffffffffffffffff821115610c0857610c08610c68565b5060209081020190565b90565b60200190565b50600490565b5190565b50600290565b919050565b90815260200190565b600061014582610c49565b151590565b73ffffffffffffffffffffffffffffffffffffffff1690565b60ff1690565bfe5b610c7381610c39565b8114610c7e57600080fd5b50565b610c7381610c44565b610c7381610c12565b610c7381610c6256fea26469706673582212209712e7b26c09fda5f55bd3abf9cfb37c7f8b4dc6502217cbb2448460f621c49664736f6c63430007060033",
  "devdoc": {
    "kind": "dev",
    "methods": {},
    "version": 1
  },
  "userdoc": {
    "kind": "user",
    "methods": {},
    "version": 1
  },
  "storageLayout": {
    "storage": [],
    "types": null
  }
}