{
  "address": "0xe7f1725E7734CE288F8367e1Bb143E90bb3F0512",
  "abi": [
    {
      "inputs": [
        {
          "components": [
            {
              "components": [
                {
                  "components": [
                    {
                      "internalType": "uint256",
                      "name": "cardId",
                      "type": "uint256"
                    },
                    {
                      "internalType": "uint8",
                      "name": "mainType",
                      "type": "uint8"
                    },
                    {
                      "internalType": "uint8",
                      "name": "secondaryType",
                      "type": "uint8"
                    },
                    {
                      "components": [
                        {
                          "internalType": "uint8",
                          "name": "hp",
                          "type": "uint8"
                        },
                        {
                          "internalType": "uint8",
                          "name": "attack",
                          "type": "uint8"
                        },
                        {
                          "internalType": "uint8",
                          "name": "defense",
                          "type": "uint8"
                        },
                        {
                          "internalType": "uint8",
                          "name": "spAttack",
                          "type": "uint8"
                        },
                        {
                          "internalType": "uint8",
                          "name": "spDefense",
                          "type": "uint8"
                        },
                        {
                          "internalType": "uint8",
                          "name": "speed",
                          "type": "uint8"
                        },
                        {
                          "internalType": "uint8[4]",
                          "name": "pp",
                          "type": "uint8[4]"
                        }
                      ],
                      "internalType": "struct ToshimonState.Stats",
                      "name": "baseStats",
                      "type": "tuple"
                    },
                    {
                      "components": [
                        {
                          "internalType": "uint8",
                          "name": "hp",
                          "type": "uint8"
                        },
                        {
                          "internalType": "uint8",
                          "name": "attack",
                          "type": "uint8"
                        },
                        {
                          "internalType": "uint8",
                          "name": "defense",
                          "type": "uint8"
                        },
                        {
                          "internalType": "uint8",
                          "name": "spAttack",
                          "type": "uint8"
                        },
                        {
                          "internalType": "uint8",
                          "name": "spDefense",
                          "type": "uint8"
                        },
                        {
                          "internalType": "uint8",
                          "name": "speed",
                          "type": "uint8"
                        },
                        {
                          "internalType": "uint8[4]",
                          "name": "pp",
                          "type": "uint8[4]"
                        }
                      ],
                      "internalType": "struct ToshimonState.Stats",
                      "name": "stats",
                      "type": "tuple"
                    },
                    {
                      "internalType": "address[4]",
                      "name": "moves",
                      "type": "address[4]"
                    },
                    {
                      "internalType": "address",
                      "name": "statusCondition",
                      "type": "address"
                    },
                    {
                      "internalType": "uint8",
                      "name": "stausConditionCounter",
                      "type": "uint8"
                    },
                    {
                      "internalType": "address",
                      "name": "specialStatusCondition",
                      "type": "address"
                    },
                    {
                      "internalType": "uint8",
                      "name": "specialStatusConditionCounter",
                      "type": "uint8"
                    },
                    {
                      "internalType": "uint8",
                      "name": "activeMoveIndex",
                      "type": "uint8"
                    },
                    {
                      "internalType": "uint8",
                      "name": "activeMoveCounter",
                      "type": "uint8"
                    }
                  ],
                  "internalType": "struct ToshimonState.MonsterCard[]",
                  "name": "monsters",
                  "type": "tuple[]"
                },
                {
                  "components": [
                    {
                      "internalType": "uint256",
                      "name": "cardId",
                      "type": "uint256"
                    },
                    {
                      "internalType": "address",
                      "name": "defintion",
                      "type": "address"
                    },
                    {
                      "internalType": "bool",
                      "name": "used",
                      "type": "bool"
                    }
                  ],
                  "internalType": "struct ToshimonState.ItemCard[]",
                  "name": "items",
                  "type": "tuple[]"
                },
                {
                  "internalType": "uint8",
                  "name": "activeMonsterIndex",
                  "type": "uint8"
                }
              ],
              "internalType": "struct ToshimonState.PlayerState[2]",
              "name": "players",
              "type": "tuple[2]"
            }
          ],
          "internalType": "struct ToshimonState.GameState",
          "name": "gs",
          "type": "tuple"
        }
      ],
      "name": "_dummy",
      "outputs": [
        {
          "internalType": "bool",
          "name": "",
          "type": "bool"
        }
      ],
      "stateMutability": "pure",
      "type": "function"
    },
    {
      "inputs": [
        {
          "internalType": "bytes",
          "name": "_gameState_",
          "type": "bytes"
        },
        {
          "components": [
            {
              "internalType": "address",
              "name": "asset",
              "type": "address"
            },
            {
              "internalType": "bytes",
              "name": "metadata",
              "type": "bytes"
            },
            {
              "components": [
                {
                  "internalType": "bytes32",
                  "name": "destination",
                  "type": "bytes32"
                },
                {
                  "internalType": "uint256",
                  "name": "amount",
                  "type": "uint256"
                },
                {
                  "internalType": "uint8",
                  "name": "allocationType",
                  "type": "uint8"
                },
                {
                  "internalType": "bytes",
                  "name": "metadata",
                  "type": "bytes"
                }
              ],
              "internalType": "struct ExitFormat.Allocation[]",
              "name": "allocations",
              "type": "tuple[]"
            }
          ],
          "internalType": "struct ExitFormat.SingleAssetExit[]",
          "name": "outcome",
          "type": "tuple[]"
        },
        {
          "internalType": "uint8",
          "name": "moveA",
          "type": "uint8"
        },
        {
          "internalType": "uint8",
          "name": "moveB",
          "type": "uint8"
        },
        {
          "internalType": "bytes32",
          "name": "randomSeed",
          "type": "bytes32"
        }
      ],
      "name": "advanceState",
      "outputs": [
        {
          "internalType": "bytes",
          "name": "",
          "type": "bytes"
        },
        {
          "components": [
            {
              "internalType": "address",
              "name": "asset",
              "type": "address"
            },
            {
              "internalType": "bytes",
              "name": "metadata",
              "type": "bytes"
            },
            {
              "components": [
                {
                  "internalType": "bytes32",
                  "name": "destination",
                  "type": "bytes32"
                },
                {
                  "internalType": "uint256",
                  "name": "amount",
                  "type": "uint256"
                },
                {
                  "internalType": "uint8",
                  "name": "allocationType",
                  "type": "uint8"
                },
                {
                  "internalType": "bytes",
                  "name": "metadata",
                  "type": "bytes"
                }
              ],
              "internalType": "struct ExitFormat.Allocation[]",
              "name": "allocations",
              "type": "tuple[]"
            }
          ],
          "internalType": "struct ExitFormat.SingleAssetExit[]",
          "name": "",
          "type": "tuple[]"
        },
        {
          "internalType": "bool",
          "name": "",
          "type": "bool"
        }
      ],
      "stateMutability": "pure",
      "type": "function"
    },
    {
      "inputs": [
        {
          "components": [
            {
              "internalType": "address",
              "name": "asset",
              "type": "address"
            },
            {
              "internalType": "bytes",
              "name": "metadata",
              "type": "bytes"
            },
            {
              "components": [
                {
                  "internalType": "bytes32",
                  "name": "destination",
                  "type": "bytes32"
                },
                {
                  "internalType": "uint256",
                  "name": "amount",
                  "type": "uint256"
                },
                {
                  "internalType": "uint8",
                  "name": "allocationType",
                  "type": "uint8"
                },
                {
                  "internalType": "bytes",
                  "name": "metadata",
                  "type": "bytes"
                }
              ],
              "internalType": "struct ExitFormat.Allocation[]",
              "name": "allocations",
              "type": "tuple[]"
            }
          ],
          "internalType": "struct ExitFormat.SingleAssetExit[]",
          "name": "outcome",
          "type": "tuple[]"
        },
        {
          "internalType": "uint8",
          "name": "playerIndex",
          "type": "uint8"
        }
      ],
      "name": "updateOutcomeFavourPlayer",
      "outputs": [
        {
          "components": [
            {
              "internalType": "address",
              "name": "asset",
              "type": "address"
            },
            {
              "internalType": "bytes",
              "name": "metadata",
              "type": "bytes"
            },
            {
              "components": [
                {
                  "internalType": "bytes32",
                  "name": "destination",
                  "type": "bytes32"
                },
                {
                  "internalType": "uint256",
                  "name": "amount",
                  "type": "uint256"
                },
                {
                  "internalType": "uint8",
                  "name": "allocationType",
                  "type": "uint8"
                },
                {
                  "internalType": "bytes",
                  "name": "metadata",
                  "type": "bytes"
                }
              ],
              "internalType": "struct ExitFormat.Allocation[]",
              "name": "allocations",
              "type": "tuple[]"
            }
          ],
          "internalType": "struct ExitFormat.SingleAssetExit[]",
          "name": "",
          "type": "tuple[]"
        }
      ],
      "stateMutability": "pure",
      "type": "function"
    },
    {
      "inputs": [
        {
          "components": [
            {
              "components": [
                {
                  "internalType": "address",
                  "name": "asset",
                  "type": "address"
                },
                {
                  "internalType": "bytes",
                  "name": "metadata",
                  "type": "bytes"
                },
                {
                  "components": [
                    {
                      "internalType": "bytes32",
                      "name": "destination",
                      "type": "bytes32"
                    },
                    {
                      "internalType": "uint256",
                      "name": "amount",
                      "type": "uint256"
                    },
                    {
                      "internalType": "uint8",
                      "name": "allocationType",
                      "type": "uint8"
                    },
                    {
                      "internalType": "bytes",
                      "name": "metadata",
                      "type": "bytes"
                    }
                  ],
                  "internalType": "struct ExitFormat.Allocation[]",
                  "name": "allocations",
                  "type": "tuple[]"
                }
              ],
              "internalType": "struct ExitFormat.SingleAssetExit[]",
              "name": "outcome",
              "type": "tuple[]"
            },
            {
              "internalType": "bytes",
              "name": "appData",
              "type": "bytes"
            },
            {
              "internalType": "uint48",
              "name": "turnNum",
              "type": "uint48"
            },
            {
              "internalType": "bool",
              "name": "isFinal",
              "type": "bool"
            }
          ],
          "internalType": "struct IForceMoveApp.VariablePart",
          "name": "prev",
          "type": "tuple"
        },
        {
          "components": [
            {
              "components": [
                {
                  "internalType": "address",
                  "name": "asset",
                  "type": "address"
                },
                {
                  "internalType": "bytes",
                  "name": "metadata",
                  "type": "bytes"
                },
                {
                  "components": [
                    {
                      "internalType": "bytes32",
                      "name": "destination",
                      "type": "bytes32"
                    },
                    {
                      "internalType": "uint256",
                      "name": "amount",
                      "type": "uint256"
                    },
                    {
                      "internalType": "uint8",
                      "name": "allocationType",
                      "type": "uint8"
                    },
                    {
                      "internalType": "bytes",
                      "name": "metadata",
                      "type": "bytes"
                    }
                  ],
                  "internalType": "struct ExitFormat.Allocation[]",
                  "name": "allocations",
                  "type": "tuple[]"
                }
              ],
              "internalType": "struct ExitFormat.SingleAssetExit[]",
              "name": "outcome",
              "type": "tuple[]"
            },
            {
              "internalType": "bytes",
              "name": "appData",
              "type": "bytes"
            },
            {
              "internalType": "uint48",
              "name": "turnNum",
              "type": "uint48"
            },
            {
              "internalType": "bool",
              "name": "isFinal",
              "type": "bool"
            }
          ],
          "internalType": "struct IForceMoveApp.VariablePart",
          "name": "next",
          "type": "tuple"
        },
        {
          "internalType": "uint256",
          "name": "nParticipants",
          "type": "uint256"
        }
      ],
      "name": "validTransition",
      "outputs": [
        {
          "internalType": "bool",
          "name": "",
          "type": "bool"
        }
      ],
      "stateMutability": "pure",
      "type": "function"
    }
  ],
  "transactionHash": "0xf46ed0e5b1437551688d177ded92a6825d2e79ea7f83ae38fd0bd1274ae57a1a",
  "args": [],
  "numDeployments": 1,
  "solcInputHash": "b6006bfb26c25c589c2ea934c02b7eca",
  "bytecode": "0x608060405234801561001057600080fd5b50611929806100206000396000f3fe608060405234801561001057600080fd5b506004361061004c5760003560e01c8063215158ec146100515780632934b2e41461007a57806353ebdc501461009a578063bd413823146100ad575b600080fd5b61006461005f366004610f68565b6100cf565b6040516100719190611695565b60405180910390f35b61008d6100883660046110fb565b6101a7565b60405161007191906116a6565b61008d6100a8366004611091565b61048f565b6100c06100bb366004610fb9565b610495565b604051610071939291906116cf565b60606000836000815181106100e057fe5b60200260200101519050600081604001516001815181106100fd57fe5b602002602001015160200151826040015160008151811061011a57fe5b602002602001015160200151019050808560008151811061013757fe5b6020026020010151604001518560ff168151811061015157fe5b6020026020010151602001818152505060008560008151811061017057fe5b602002602001015160400151851960ff168151811061018b57fe5b6020026020010151602001818152505084925050505b92915050565b6000816002146101d25760405162461bcd60e51b81526004016101c990611743565b60405180910390fd5b60006101e184604001516104c1565b905060006101f286602001516104d2565b9050600061020386602001516104d2565b9050600083600381111561021357fe5b141561026e5761022b826080015182608001516104ee565b6102475760405162461bcd60e51b81526004016101c990611763565b85518751610260919061025b9060006100cf565b610547565b61026957600080fd5b610480565b600183600381111561027c57fe5b14156102e557610294826080015182608001516104ee565b6102b05760405162461bcd60e51b81526004016101c990611733565b80518251146102d15760405162461bcd60e51b81526004016101c990611713565b85518751610260919061025b9060016100cf565b60028360038111156102f357fe5b14156103885761030b826080015182608001516104ee565b6103275760405162461bcd60e51b81526004016101c990611753565b806020015182602001511461034e5760405162461bcd60e51b81526004016101c990611703565b80604001516040516020016103639190611773565b6040516020818303038152906040528051906020012082600001511461024757600080fd5b600383600381111561039657fe5b14156104805780606001516040516020016103b19190611773565b604051602081830303815290604052805190602001208260200151146103d657600080fd5b855187516103ea919061025b9060016100cf565b6103f357600080fd5b600061040f826040015160200151836060015160200151610581565b905060008061043985608001518b6000015186604001516000015187606001516000015187610495565b925050915061044c8285608001516104ee565b6104685760405162461bcd60e51b81526004016101c990611723565b886060015115158115151461047c57600080fd5b5050505b600193505050505b9392505050565b50600190565b606080600080888060200190518101906104af91906110c6565b50979896975060019695505050505050565b60006003808316908111156101a157fe5b6104da6105b4565b818060200190518101906101a1919061105c565b6000816040516020016105019190611689565b60405160208183030381529060405280519060200120836040516020016105289190611689565b6040516020818303038152906040528051906020012014905092915050565b60008160405160200161055a9190611695565b60405160208183030381529060405280519060200120836040516020016105289190611695565b600082826040516020016105969291906116b4565b60405160208183030381529060405280519060200120905092915050565b6040805160a081018252600080825260208201529081016105d36105ed565b81526020016105e06105ed565b8152602001606081525090565b604080518082019091526000808252602082015290565b6000610617610612846117ab565b611781565b9050808285602086028501111561062d57600080fd5b60005b858110156106575761064287836108a1565b83526020928301929190910190600101610630565b5050509392505050565b600061066f610612846117cc565b8381529050602081018260005b85811015610657578135850161069288826109f7565b845250602092830192919091019060010161067c565b60006106b6610612846117cc565b838152905060208101826060850281018610156106d257600080fd5b60005b85811015610657576106e78783610b71565b8352602090920191606091909101906001016106d5565b600061070c610612846117cc565b838152905060208101826104208502810186101561072957600080fd5b60005b858110156106575761073e8783610bc8565b8352602090920191610420919091019060010161072c565b6000610764610612846117ab565b9050808260005b8581101561065757815185016107818882610cdf565b845250602092830192919091019060010161076b565b60006107a5610612846117cc565b8381529050602081018260005b8581101561065757813585016107c88882610d98565b84525060209283019291909101906001016107b2565b60006107ec610612846117ab565b9050808285602086028501111561080257600080fd5b60005b85811015610657576108178783610f5d565b83526020928301929190910190600101610805565b600061083a610612846117f0565b90508281526020810184848401111561085257600080fd5b61085d848285611870565b509392505050565b6000610873610612846117f0565b90508281526020810184848401111561088b57600080fd5b61085d84828561187c565b80356101a1816118b8565b80516101a1816118b8565b600082601f8301126108bc578081fd5b60046108c9848285610604565b949350505050565b600082601f8301126108e1578081fd5b81356108c9848260208601610661565b600082601f830112610901578081fd5b81516108c98482602086016106a8565b600082601f830112610921578081fd5b81516108c98482602086016106fe565b600082601f830112610941578081fd5b60026108c9848285610756565b600082601f83011261095e578081fd5b81356108c9848260208601610797565b600082601f83011261097e578081fd5b60046108c98482856107de565b80356101a1816118cf565b80516101a1816118cf565b80356101a1816118d8565b80516101a1816118d8565b600082601f8301126109c7578081fd5b81356108c984826020860161082c565b600082601f8301126109e7578081fd5b81516108c9848260208601610865565b600060808284031215610a08578081fd5b610a126080611781565b90506000610a2084846109a1565b818301526020610a32858286016109a1565b908301526040610a4485858301610f52565b90830152606083013567ffffffffffffffff811115610a61578182fd5b610a6d858286016109b7565b6060840152505092915050565b600060e08284031215610a8b578081fd5b610a9560a0611781565b90506000610aa384846109ac565b818301526020610ab5858286016109ac565b908301526040610ac785858301610d5d565b908301526080610ad985858301610d5d565b606084015260c084015167ffffffffffffffff811115610af7578283fd5b610b03868287016109d7565b8285015250505092915050565b600060208284031215610b21578081fd5b50919050565b600060208284031215610b38578081fd5b610b426020611781565b825190915067ffffffffffffffff811115610b5c57600080fd5b610b6884828501610931565b82525092915050565b600060608284031215610b82578081fd5b610b8c6060611781565b90506000610b9a84846109ac565b908201526020610bac848483016108a1565b908201526040610bbe84848301610996565b9082015292915050565b60006104208284031215610bda578081fd5b610be5610180611781565b90506000610bf384846109ac565b908201526020610c0584848301610f5d565b908201526040610c1784848301610f5d565b908201526060610c2984848301610e22565b908201526101a0610c3c84848301610e22565b6080830152506102e0610c51848285016108ac565b60a083015250610360610c66848285016108a1565b60c083015250610380610c7b84828501610f5d565b60e0830152506103a0610c90848285016108a1565b610100830152506103c0610ca684828501610f5d565b610120830152506103e0610cbc84828501610f5d565b61014083015250610400610cd284828501610f5d565b6101608301525092915050565b600060608284031215610cf0578081fd5b610cfa6060611781565b825190915067ffffffffffffffff811115610d1457600080fd5b610d2084828501610911565b825250602082015167ffffffffffffffff811115610d3d57600080fd5b610d49848285016108f1565b6020830152506040610bbe84828501610f5d565b600060408284031215610d6e578081fd5b610d786040611781565b90506000610d868484610f5d565b908201526020610bbe848483016109ac565b600060608284031215610da9578081fd5b610db36060611781565b90506000610dc18484610896565b81830152602083013567ffffffffffffffff811115610dde578182fd5b610dea858286016109b7565b602084015250604083013567ffffffffffffffff811115610e09578182fd5b610e15858286016108d1565b6040840152505092915050565b60006101408284031215610e34578081fd5b610e3e60e0611781565b90506000610e4c8484610f5d565b908201526020610e5e84848301610f5d565b908201526040610e7084848301610f5d565b908201526060610e8284848301610f5d565b908201526080610e9484848301610f5d565b9082015260a0610ea684848301610f5d565b9082015260c0610bbe8484830161096e565b600060808284031215610ec9578081fd5b610ed36080611781565b9050813567ffffffffffffffff811115610eec57600080fd5b610ef88482850161094e565b825250602082013567ffffffffffffffff811115610f1557600080fd5b610f21848285016109b7565b6020830152506040610f3584828501610f47565b908201526060610bbe8484830161098b565b80356101a1816118e1565b80356101a1816118ea565b80516101a1816118ea565b60008060408385031215610f7a578182fd5b8183013567ffffffffffffffff811115610f92578283fd5b610f9e8582860161094e565b9250506020610faf85828601610f52565b9150509250929050565b600080600080600060a08688031215610fd0578081fd5b8086013567ffffffffffffffff811115610fe8578182fd5b610ff4888289016109b7565b955050602086013567ffffffffffffffff811115611010578182fd5b61101c8882890161094e565b945050604061102d88828901610f52565b935050606061103e88828901610f52565b925050608061104f888289016109a1565b9150509295509295909350565b60006020828403121561106d578081fd5b8082015167ffffffffffffffff811115611085578182fd5b6108c984828501610a7a565b6000602082840312156110a2578081fd5b8082013567ffffffffffffffff8111156110ba578182fd5b6108c984828501610b10565b6000602082840312156110d7578081fd5b8082015167ffffffffffffffff8111156110ef578182fd5b6108c984828501610b27565b60008060006060848603121561110f578081fd5b8084013567ffffffffffffffff811115611127578182fd5b61113386828701610eb8565b935050602084013567ffffffffffffffff81111561114f578182fd5b61115b86828701610eb8565b925050604061116c868287016109a1565b9150509250925092565b600061048883836115bb565b6000610488838361163a565b61119781611833565b82525050565b60006111a882611821565b6111b28185611825565b9350836020820285016111c48561181b565b845b848110156111fc57838303885281516111df8482611176565b9350506111eb8261181b565b6020989098019791506001016111c6565b50909695505050505050565b600061121382611821565b61121d8185611825565b93508360208202850161122f8561181b565b845b848110156111fc578383038852815161124a8482611182565b9350506112568261181b565b602098909801979150600101611231565b6111978161183e565b61119781611843565b600061128482611821565b61128e8185611825565b935061129e81856020860161187c565b6112a7816118ae565b9093019392505050565b60006112bc82611821565b6112c6818561182e565b93506112d681856020860161187c565b9290920192915050565b60006112ed602e83611825565b7f43616e6e6f74206d75746174652042277320707265436f6d6d697420696e205b918101919091527f412072657665616c5d206d6f76650000000000000000000000000000000000006020820152604001919050565b6000611350603283611825565b7f43616e6e6f74206d75746174652041277320707265436f6d6d697420696e205b918101919091527f4220636f6d6d69746d656e745d206d6f766500000000000000000000000000006020820152604001919050565b60006113b3604683611825565b7f4e6577207374617465206d75737420626520636f6d7075746564206261736564918101919091527f206f6e20707265436f6d6d6974206d6f76657320696e205b422072657665616c60208201527f5d206d6f766500000000000000000000000000000000000000000000000000006040820152606001919050565b600061143c603383611825565b7f43616e6e6f74206d7574617465207468652067616d6520737461746520696e20918101919091527f5b4220636f6d6d69746d656e745d206d6f7665000000000000000000000000006020820152604001919050565b600061149f603683611825565b7f4f6e6c792074776f207061727469636970616e7420636f6d6d69742f72657665918101919091527f616c2067616d65732061726520737570706f72746564000000000000000000006020820152604001919050565b6000611502602f83611825565b7f43616e6e6f74206d7574617465207468652067616d6520737461746520696e20918101919091527f5b412072657665616c5d206d6f766500000000000000000000000000000000006020820152604001919050565b6000611565603383611825565b7f43616e6e6f74206d7574617465207468652067616d6520737461746520696e20918101919091527f5b4120636f6d6d69746d656e745d206d6f7665000000000000000000000000006020820152604001919050565b805160009060808401906115cf8582611270565b5060208301516115e26020860182611270565b5060408301516115f56040860182611680565b506060830151848203606086015261160d8282611279565b95945050505050565b80516116228382611680565b5060208101516116356020840182611270565b505050565b8051600090606084019061164e858261118e565b50602083015184820360208601526116668282611279565b9150506040830151848203604086015261160d828261119d565b6111978161186a565b600061048882846112b1565b602080825281016104888184611208565b602081016101a18284611267565b604081016116c28285611270565b6104886020830184611270565b606080825281016116e08186611279565b905081810360208301526116f48185611208565b90506108c96040830184611267565b602080825281016101a1816112e0565b602080825281016101a181611343565b602080825281016101a1816113a6565b602080825281016101a18161142f565b602080825281016101a181611492565b602080825281016101a1816114f5565b602080825281016101a181611558565b604081016101a18284611616565b60405181810167ffffffffffffffff811182821017156117a3576117a36118ac565b604052919050565b600067ffffffffffffffff8211156117c5576117c56118ac565b5060200290565b600067ffffffffffffffff8211156117e6576117e66118ac565b5060209081020190565b600067ffffffffffffffff82111561180a5761180a6118ac565b506020601f91909101601f19160190565b60200190565b5190565b90815260200190565b919050565b60006101a182611846565b151590565b90565b73ffffffffffffffffffffffffffffffffffffffff1690565b65ffffffffffff1690565b60ff1690565b82818337506000910152565b60005b8381101561189757818101518382015260200161187f565b838111156118a6576000848401525b50505050565bfe5b601f01601f191690565b6118c181611833565b81146118cc57600080fd5b50565b6118c18161183e565b6118c181611843565b6118c18161185f565b6118c18161186a56fea264697066735822122013f55dde0d7d1c2fd88c79bee830d44c12914dced304666d0e1e928df741333964736f6c63430007060033",
  "devdoc": {
    "kind": "dev",
    "methods": {
      "updateOutcomeFavourPlayer((address,bytes,(bytes32,uint256,uint8,bytes)[])[],uint8)": {
        "details": "Take an old outcome and update it to favour a given player       Assumes the outcome allocations can be indexed by the playerIndex",
        "params": {
          "outcome": "An outcome object to be rebalanced",
          "playerIndex": "Zero based index of the player to be assigned the favoured outcome"
        },
        "returns": {
          "_0": "The outcome resulting in a rebalance to the given player"
        }
      },
      "validTransition(((address,bytes,(bytes32,uint256,uint8,bytes)[])[],bytes,uint48,bool),((address,bytes,(bytes32,uint256,uint8,bytes)[])[],bytes,uint48,bool),uint256)": {
        "details": "Override of IForceMove validTransition for the randomness protocol"
      }
    },
    "version": 1
  },
  "userdoc": {
    "kind": "user",
    "methods": {},
    "version": 1
  },
  "storageLayout": {
    "storage": [],
    "types": null
  }
}