{
  "address": "0xe7f1725E7734CE288F8367e1Bb143E90bb3F0512",
  "abi": [
    {
      "inputs": [
        {
          "internalType": "bytes",
          "name": "_gameState_",
          "type": "bytes"
        },
        {
          "components": [
            {
              "internalType": "address",
              "name": "asset",
              "type": "address"
            },
            {
              "internalType": "bytes",
              "name": "metadata",
              "type": "bytes"
            },
            {
              "components": [
                {
                  "internalType": "bytes32",
                  "name": "destination",
                  "type": "bytes32"
                },
                {
                  "internalType": "uint256",
                  "name": "amount",
                  "type": "uint256"
                },
                {
                  "internalType": "uint8",
                  "name": "allocationType",
                  "type": "uint8"
                },
                {
                  "internalType": "bytes",
                  "name": "metadata",
                  "type": "bytes"
                }
              ],
              "internalType": "struct ExitFormat.Allocation[]",
              "name": "allocations",
              "type": "tuple[]"
            }
          ],
          "internalType": "struct ExitFormat.SingleAssetExit[]",
          "name": "outcome",
          "type": "tuple[]"
        },
        {
          "internalType": "uint8",
          "name": "moveA",
          "type": "uint8"
        },
        {
          "internalType": "uint8",
          "name": "moveB",
          "type": "uint8"
        },
        {
          "internalType": "bytes32",
          "name": "randomSeed",
          "type": "bytes32"
        }
      ],
      "name": "advanceState",
      "outputs": [
        {
          "internalType": "bytes",
          "name": "",
          "type": "bytes"
        },
        {
          "components": [
            {
              "internalType": "address",
              "name": "asset",
              "type": "address"
            },
            {
              "internalType": "bytes",
              "name": "metadata",
              "type": "bytes"
            },
            {
              "components": [
                {
                  "internalType": "bytes32",
                  "name": "destination",
                  "type": "bytes32"
                },
                {
                  "internalType": "uint256",
                  "name": "amount",
                  "type": "uint256"
                },
                {
                  "internalType": "uint8",
                  "name": "allocationType",
                  "type": "uint8"
                },
                {
                  "internalType": "bytes",
                  "name": "metadata",
                  "type": "bytes"
                }
              ],
              "internalType": "struct ExitFormat.Allocation[]",
              "name": "allocations",
              "type": "tuple[]"
            }
          ],
          "internalType": "struct ExitFormat.SingleAssetExit[]",
          "name": "",
          "type": "tuple[]"
        },
        {
          "internalType": "bool",
          "name": "",
          "type": "bool"
        }
      ],
      "stateMutability": "pure",
      "type": "function"
    },
    {
      "inputs": [
        {
          "components": [
            {
              "components": [
                {
                  "components": [
                    {
                      "internalType": "uint256",
                      "name": "cardId",
                      "type": "uint256"
                    },
                    {
                      "internalType": "uint8",
                      "name": "mainType",
                      "type": "uint8"
                    },
                    {
                      "internalType": "uint8",
                      "name": "secondaryType",
                      "type": "uint8"
                    },
                    {
                      "components": [
                        {
                          "internalType": "uint8",
                          "name": "hp",
                          "type": "uint8"
                        },
                        {
                          "internalType": "uint8",
                          "name": "attack",
                          "type": "uint8"
                        },
                        {
                          "internalType": "uint8",
                          "name": "defense",
                          "type": "uint8"
                        },
                        {
                          "internalType": "uint8",
                          "name": "spAttack",
                          "type": "uint8"
                        },
                        {
                          "internalType": "uint8",
                          "name": "spDefense",
                          "type": "uint8"
                        },
                        {
                          "internalType": "uint8",
                          "name": "speed",
                          "type": "uint8"
                        },
                        {
                          "internalType": "uint8[4]",
                          "name": "pp",
                          "type": "uint8[4]"
                        }
                      ],
                      "internalType": "struct ToshimonState.Stats",
                      "name": "baseStats",
                      "type": "tuple"
                    },
                    {
                      "components": [
                        {
                          "internalType": "uint8",
                          "name": "hp",
                          "type": "uint8"
                        },
                        {
                          "internalType": "uint8",
                          "name": "attack",
                          "type": "uint8"
                        },
                        {
                          "internalType": "uint8",
                          "name": "defense",
                          "type": "uint8"
                        },
                        {
                          "internalType": "uint8",
                          "name": "spAttack",
                          "type": "uint8"
                        },
                        {
                          "internalType": "uint8",
                          "name": "spDefense",
                          "type": "uint8"
                        },
                        {
                          "internalType": "uint8",
                          "name": "speed",
                          "type": "uint8"
                        },
                        {
                          "internalType": "uint8[4]",
                          "name": "pp",
                          "type": "uint8[4]"
                        }
                      ],
                      "internalType": "struct ToshimonState.Stats",
                      "name": "stats",
                      "type": "tuple"
                    },
                    {
                      "internalType": "address[4]",
                      "name": "moves",
                      "type": "address[4]"
                    },
                    {
                      "internalType": "address",
                      "name": "statusCondition",
                      "type": "address"
                    },
                    {
                      "internalType": "uint8",
                      "name": "stausConditionCounter",
                      "type": "uint8"
                    },
                    {
                      "internalType": "address",
                      "name": "specialStatusCondition",
                      "type": "address"
                    },
                    {
                      "internalType": "uint8",
                      "name": "specialStatusConditionCounter",
                      "type": "uint8"
                    },
                    {
                      "internalType": "uint8",
                      "name": "activeMoveIndex",
                      "type": "uint8"
                    },
                    {
                      "internalType": "uint8",
                      "name": "activeMoveCounter",
                      "type": "uint8"
                    }
                  ],
                  "internalType": "struct ToshimonState.MonsterCard[]",
                  "name": "monsters",
                  "type": "tuple[]"
                },
                {
                  "components": [
                    {
                      "internalType": "uint256",
                      "name": "cardId",
                      "type": "uint256"
                    },
                    {
                      "internalType": "address",
                      "name": "defintion",
                      "type": "address"
                    },
                    {
                      "internalType": "bool",
                      "name": "used",
                      "type": "bool"
                    }
                  ],
                  "internalType": "struct ToshimonState.ItemCard[]",
                  "name": "items",
                  "type": "tuple[]"
                },
                {
                  "internalType": "uint8",
                  "name": "activeMonsterIndex",
                  "type": "uint8"
                }
              ],
              "internalType": "struct ToshimonState.PlayerState[2]",
              "name": "players",
              "type": "tuple[2]"
            }
          ],
          "internalType": "struct ToshimonState.GameState",
          "name": "gameState",
          "type": "tuple"
        },
        {
          "components": [
            {
              "internalType": "address",
              "name": "asset",
              "type": "address"
            },
            {
              "internalType": "bytes",
              "name": "metadata",
              "type": "bytes"
            },
            {
              "components": [
                {
                  "internalType": "bytes32",
                  "name": "destination",
                  "type": "bytes32"
                },
                {
                  "internalType": "uint256",
                  "name": "amount",
                  "type": "uint256"
                },
                {
                  "internalType": "uint8",
                  "name": "allocationType",
                  "type": "uint8"
                },
                {
                  "internalType": "bytes",
                  "name": "metadata",
                  "type": "bytes"
                }
              ],
              "internalType": "struct ExitFormat.Allocation[]",
              "name": "allocations",
              "type": "tuple[]"
            }
          ],
          "internalType": "struct ExitFormat.SingleAssetExit[]",
          "name": "outcome",
          "type": "tuple[]"
        },
        {
          "internalType": "uint8",
          "name": "moveA",
          "type": "uint8"
        },
        {
          "internalType": "uint8",
          "name": "moveB",
          "type": "uint8"
        },
        {
          "internalType": "bytes32",
          "name": "randomSeed",
          "type": "bytes32"
        }
      ],
      "name": "advanceStateTyped",
      "outputs": [
        {
          "components": [
            {
              "components": [
                {
                  "components": [
                    {
                      "internalType": "uint256",
                      "name": "cardId",
                      "type": "uint256"
                    },
                    {
                      "internalType": "uint8",
                      "name": "mainType",
                      "type": "uint8"
                    },
                    {
                      "internalType": "uint8",
                      "name": "secondaryType",
                      "type": "uint8"
                    },
                    {
                      "components": [
                        {
                          "internalType": "uint8",
                          "name": "hp",
                          "type": "uint8"
                        },
                        {
                          "internalType": "uint8",
                          "name": "attack",
                          "type": "uint8"
                        },
                        {
                          "internalType": "uint8",
                          "name": "defense",
                          "type": "uint8"
                        },
                        {
                          "internalType": "uint8",
                          "name": "spAttack",
                          "type": "uint8"
                        },
                        {
                          "internalType": "uint8",
                          "name": "spDefense",
                          "type": "uint8"
                        },
                        {
                          "internalType": "uint8",
                          "name": "speed",
                          "type": "uint8"
                        },
                        {
                          "internalType": "uint8[4]",
                          "name": "pp",
                          "type": "uint8[4]"
                        }
                      ],
                      "internalType": "struct ToshimonState.Stats",
                      "name": "baseStats",
                      "type": "tuple"
                    },
                    {
                      "components": [
                        {
                          "internalType": "uint8",
                          "name": "hp",
                          "type": "uint8"
                        },
                        {
                          "internalType": "uint8",
                          "name": "attack",
                          "type": "uint8"
                        },
                        {
                          "internalType": "uint8",
                          "name": "defense",
                          "type": "uint8"
                        },
                        {
                          "internalType": "uint8",
                          "name": "spAttack",
                          "type": "uint8"
                        },
                        {
                          "internalType": "uint8",
                          "name": "spDefense",
                          "type": "uint8"
                        },
                        {
                          "internalType": "uint8",
                          "name": "speed",
                          "type": "uint8"
                        },
                        {
                          "internalType": "uint8[4]",
                          "name": "pp",
                          "type": "uint8[4]"
                        }
                      ],
                      "internalType": "struct ToshimonState.Stats",
                      "name": "stats",
                      "type": "tuple"
                    },
                    {
                      "internalType": "address[4]",
                      "name": "moves",
                      "type": "address[4]"
                    },
                    {
                      "internalType": "address",
                      "name": "statusCondition",
                      "type": "address"
                    },
                    {
                      "internalType": "uint8",
                      "name": "stausConditionCounter",
                      "type": "uint8"
                    },
                    {
                      "internalType": "address",
                      "name": "specialStatusCondition",
                      "type": "address"
                    },
                    {
                      "internalType": "uint8",
                      "name": "specialStatusConditionCounter",
                      "type": "uint8"
                    },
                    {
                      "internalType": "uint8",
                      "name": "activeMoveIndex",
                      "type": "uint8"
                    },
                    {
                      "internalType": "uint8",
                      "name": "activeMoveCounter",
                      "type": "uint8"
                    }
                  ],
                  "internalType": "struct ToshimonState.MonsterCard[]",
                  "name": "monsters",
                  "type": "tuple[]"
                },
                {
                  "components": [
                    {
                      "internalType": "uint256",
                      "name": "cardId",
                      "type": "uint256"
                    },
                    {
                      "internalType": "address",
                      "name": "defintion",
                      "type": "address"
                    },
                    {
                      "internalType": "bool",
                      "name": "used",
                      "type": "bool"
                    }
                  ],
                  "internalType": "struct ToshimonState.ItemCard[]",
                  "name": "items",
                  "type": "tuple[]"
                },
                {
                  "internalType": "uint8",
                  "name": "activeMonsterIndex",
                  "type": "uint8"
                }
              ],
              "internalType": "struct ToshimonState.PlayerState[2]",
              "name": "players",
              "type": "tuple[2]"
            }
          ],
          "internalType": "struct ToshimonState.GameState",
          "name": "",
          "type": "tuple"
        },
        {
          "components": [
            {
              "internalType": "address",
              "name": "asset",
              "type": "address"
            },
            {
              "internalType": "bytes",
              "name": "metadata",
              "type": "bytes"
            },
            {
              "components": [
                {
                  "internalType": "bytes32",
                  "name": "destination",
                  "type": "bytes32"
                },
                {
                  "internalType": "uint256",
                  "name": "amount",
                  "type": "uint256"
                },
                {
                  "internalType": "uint8",
                  "name": "allocationType",
                  "type": "uint8"
                },
                {
                  "internalType": "bytes",
                  "name": "metadata",
                  "type": "bytes"
                }
              ],
              "internalType": "struct ExitFormat.Allocation[]",
              "name": "allocations",
              "type": "tuple[]"
            }
          ],
          "internalType": "struct ExitFormat.SingleAssetExit[]",
          "name": "",
          "type": "tuple[]"
        },
        {
          "internalType": "bool",
          "name": "",
          "type": "bool"
        }
      ],
      "stateMutability": "pure",
      "type": "function"
    },
    {
      "inputs": [
        {
          "components": [
            {
              "internalType": "address",
              "name": "asset",
              "type": "address"
            },
            {
              "internalType": "bytes",
              "name": "metadata",
              "type": "bytes"
            },
            {
              "components": [
                {
                  "internalType": "bytes32",
                  "name": "destination",
                  "type": "bytes32"
                },
                {
                  "internalType": "uint256",
                  "name": "amount",
                  "type": "uint256"
                },
                {
                  "internalType": "uint8",
                  "name": "allocationType",
                  "type": "uint8"
                },
                {
                  "internalType": "bytes",
                  "name": "metadata",
                  "type": "bytes"
                }
              ],
              "internalType": "struct ExitFormat.Allocation[]",
              "name": "allocations",
              "type": "tuple[]"
            }
          ],
          "internalType": "struct ExitFormat.SingleAssetExit[]",
          "name": "outcome",
          "type": "tuple[]"
        },
        {
          "internalType": "uint8",
          "name": "playerIndex",
          "type": "uint8"
        }
      ],
      "name": "updateOutcomeFavourPlayer",
      "outputs": [
        {
          "components": [
            {
              "internalType": "address",
              "name": "asset",
              "type": "address"
            },
            {
              "internalType": "bytes",
              "name": "metadata",
              "type": "bytes"
            },
            {
              "components": [
                {
                  "internalType": "bytes32",
                  "name": "destination",
                  "type": "bytes32"
                },
                {
                  "internalType": "uint256",
                  "name": "amount",
                  "type": "uint256"
                },
                {
                  "internalType": "uint8",
                  "name": "allocationType",
                  "type": "uint8"
                },
                {
                  "internalType": "bytes",
                  "name": "metadata",
                  "type": "bytes"
                }
              ],
              "internalType": "struct ExitFormat.Allocation[]",
              "name": "allocations",
              "type": "tuple[]"
            }
          ],
          "internalType": "struct ExitFormat.SingleAssetExit[]",
          "name": "",
          "type": "tuple[]"
        }
      ],
      "stateMutability": "pure",
      "type": "function"
    },
    {
      "inputs": [
        {
          "components": [
            {
              "components": [
                {
                  "internalType": "address",
                  "name": "asset",
                  "type": "address"
                },
                {
                  "internalType": "bytes",
                  "name": "metadata",
                  "type": "bytes"
                },
                {
                  "components": [
                    {
                      "internalType": "bytes32",
                      "name": "destination",
                      "type": "bytes32"
                    },
                    {
                      "internalType": "uint256",
                      "name": "amount",
                      "type": "uint256"
                    },
                    {
                      "internalType": "uint8",
                      "name": "allocationType",
                      "type": "uint8"
                    },
                    {
                      "internalType": "bytes",
                      "name": "metadata",
                      "type": "bytes"
                    }
                  ],
                  "internalType": "struct ExitFormat.Allocation[]",
                  "name": "allocations",
                  "type": "tuple[]"
                }
              ],
              "internalType": "struct ExitFormat.SingleAssetExit[]",
              "name": "outcome",
              "type": "tuple[]"
            },
            {
              "internalType": "bytes",
              "name": "appData",
              "type": "bytes"
            },
            {
              "internalType": "uint48",
              "name": "turnNum",
              "type": "uint48"
            },
            {
              "internalType": "bool",
              "name": "isFinal",
              "type": "bool"
            }
          ],
          "internalType": "struct IForceMoveApp.VariablePart",
          "name": "prev",
          "type": "tuple"
        },
        {
          "components": [
            {
              "components": [
                {
                  "internalType": "address",
                  "name": "asset",
                  "type": "address"
                },
                {
                  "internalType": "bytes",
                  "name": "metadata",
                  "type": "bytes"
                },
                {
                  "components": [
                    {
                      "internalType": "bytes32",
                      "name": "destination",
                      "type": "bytes32"
                    },
                    {
                      "internalType": "uint256",
                      "name": "amount",
                      "type": "uint256"
                    },
                    {
                      "internalType": "uint8",
                      "name": "allocationType",
                      "type": "uint8"
                    },
                    {
                      "internalType": "bytes",
                      "name": "metadata",
                      "type": "bytes"
                    }
                  ],
                  "internalType": "struct ExitFormat.Allocation[]",
                  "name": "allocations",
                  "type": "tuple[]"
                }
              ],
              "internalType": "struct ExitFormat.SingleAssetExit[]",
              "name": "outcome",
              "type": "tuple[]"
            },
            {
              "internalType": "bytes",
              "name": "appData",
              "type": "bytes"
            },
            {
              "internalType": "uint48",
              "name": "turnNum",
              "type": "uint48"
            },
            {
              "internalType": "bool",
              "name": "isFinal",
              "type": "bool"
            }
          ],
          "internalType": "struct IForceMoveApp.VariablePart",
          "name": "next",
          "type": "tuple"
        },
        {
          "internalType": "uint256",
          "name": "nParticipants",
          "type": "uint256"
        }
      ],
      "name": "validTransition",
      "outputs": [
        {
          "internalType": "bool",
          "name": "",
          "type": "bool"
        }
      ],
      "stateMutability": "pure",
      "type": "function"
    }
  ],
  "transactionHash": "0x5c087e86df2a6dbfcd3a00793b99b69199df98c658b19b784679437b24d8bd98",
  "args": [],
  "numDeployments": 1,
  "solcInputHash": "3773c54f6e64fc0e9330e561268855b0",
  "bytecode": "0x608060405234801561001057600080fd5b50612342806100206000396000f3fe608060405234801561001057600080fd5b506004361061004c5760003560e01c8063215158ec146100515780632934b2e41461007a5780634e42d6e01461009a578063bd413823146100bc575b600080fd5b61006461005f366004611546565b6100de565b6040516100719190612080565b60405180910390f35b61008d6100883660046116fb565b6101b6565b6040516100719190612091565b6100ad6100a83660046116a4565b61049e565b6040516100719392919061216f565b6100cf6100ca366004611597565b6104fd565b604051610071939291906120ba565b60606000836000815181106100ef57fe5b602002602001015190506000816040015160018151811061010c57fe5b602002602001015160200151826040015160008151811061012957fe5b602002602001015160200151019050808560008151811061014657fe5b6020026020010151604001518560ff168151811061016057fe5b6020026020010151602001818152505060008560008151811061017f57fe5b602002602001015160400151851960ff168151811061019a57fe5b6020026020010151602001818152505084925050505b92915050565b6000816002146101e15760405162461bcd60e51b81526004016101d89061212e565b60405180910390fd5b60006101f08460400151610563565b905060006102018660200151610574565b905060006102128660200151610574565b9050600083600381111561022257fe5b141561027d5761023a82608001518260800151610590565b6102565760405162461bcd60e51b81526004016101d89061214e565b8551875161026f919061026a9060006100de565b6105e9565b61027857600080fd5b61048f565b600183600381111561028b57fe5b14156102f4576102a382608001518260800151610590565b6102bf5760405162461bcd60e51b81526004016101d89061211e565b80518251146102e05760405162461bcd60e51b81526004016101d8906120fe565b8551875161026f919061026a9060016100de565b600283600381111561030257fe5b14156103975761031a82608001518260800151610590565b6103365760405162461bcd60e51b81526004016101d89061213e565b806020015182602001511461035d5760405162461bcd60e51b81526004016101d8906120ee565b80604001516040516020016103729190612180565b6040516020818303038152906040528051906020012082600001511461025657600080fd5b60038360038111156103a557fe5b141561048f5780606001516040516020016103c09190612180565b604051602081830303815290604052805190602001208260200151146103e557600080fd5b855187516103f9919061026a9060016100de565b61040257600080fd5b600061041e826040015160200151836060015160200151610623565b905060008061044885608001518b60000151866040015160000151876060015160000151876104fd565b925050915061045b828560800151610590565b6104775760405162461bcd60e51b81526004016101d89061210e565b886060015115158115151461048b57600080fd5b5050505b600193505050505b9392505050565b6104a6610674565b606060006104b386610656565b156104ca5787515160ff6003198801166040909101525b6104d385610656565b156104ed5787516020015160ff6003198701166040909101525b5095969495506001949350505050565b60608060008088806020019051810190610517919061166f565b9050600080600061052b848c8c8c8c61049e565b92509250925082604051602001610542919061215e565b60408051808303601f190181529190529c919b509950975050505050505050565b60006003808316908111156101b057fe5b61057c61068c565b818060200190518101906101b0919061163a565b6000816040516020016105a39190612074565b60405160208183030381529060405280519060200120836040516020016105ca9190612074565b6040516020818303038152906040528051906020012014905092915050565b6000816040516020016105fc9190612080565b60405160208183030381529060405280519060200120836040516020016105ca9190612080565b6000828260405160200161063892919061209f565b60405160208183030381529060405280519060200120905092915050565b600060048260ff16101580156101b0575050600860ff909116111590565b60405180602001604052806106876106c5565b905290565b6040805160a081018252600080825260208201529081016106ab6106f2565b81526020016106b86106f2565b8152602001606081525090565b60405180604001604052806002905b6106dc610709565b8152602001906001900390816106d45790505090565b604080518082019091526000808252602082015290565b60405180606001604052806060815260200160608152602001600060ff1681525090565b600061074061073b846121b8565b61218e565b9050808285602086028501111561075657600080fd5b60005b858110156107805761076b8783610b4a565b83526020928301929190910190600101610759565b5050509392505050565b600061079861073b846121b8565b905080828560208602850111156107ae57600080fd5b60005b85811015610780576107c38783610b55565b835260209283019291909101906001016107b1565b60006107e661073b846121d9565b8381529050602081018260005b8581101561078057813585016108098882610d42565b84525060209283019291909101906001016107f3565b600061082d61073b846121d9565b8381529050602081018260608502810186101561084957600080fd5b60005b858110156107805761085e8783610ee5565b83526020909201916060919091019060010161084c565b600061088361073b846121d9565b8381529050602081018260608502810186101561089f57600080fd5b60005b85811015610780576108b48783610f3c565b8352602090920191606091909101906001016108a2565b60006108d961073b846121d9565b83815290506020810182610420850281018610156108f657600080fd5b60005b858110156107805761090b8783610f89565b835260209092019161042091909101906001016108f9565b600061093161073b846121d9565b838152905060208101826104208502810186101561094e57600080fd5b60005b858110156107805761096387836110a0565b83526020909201916104209190910190600101610951565b600061098961073b846121b8565b9050808260005b8581101561078057813585016109a688826111aa565b8452506020928301929190910190600101610990565b60006109ca61073b846121b8565b9050808260005b8581101561078057815185016109e78882611227565b84525060209283019291909101906001016109d1565b6000610a0b61073b846121d9565b8381529050602081018260005b858110156107805781358501610a2e88826112e0565b8452506020928301929190910190600101610a18565b6000610a5261073b846121b8565b90508082856020860285011115610a6857600080fd5b60005b8581101561078057610a7d8783611530565b83526020928301929190910190600101610a6b565b6000610aa061073b846121b8565b90508082856020860285011115610ab657600080fd5b60005b8581101561078057610acb878361153b565b83526020928301929190910190600101610ab9565b6000610aee61073b846121fd565b905082815260208101848484011115610b0657600080fd5b610b11848285612289565b509392505050565b6000610b2761073b846121fd565b905082815260208101848484011115610b3f57600080fd5b610b11848285612295565b80356101b0816122d1565b80516101b0816122d1565b600082601f830112610b70578081fd5b6004610b7d84828561072d565b949350505050565b600082601f830112610b95578081fd5b6004610b7d84828561078a565b600082601f830112610bb2578081fd5b8135610b7d8482602086016107d8565b600082601f830112610bd2578081fd5b8135610b7d84826020860161081f565b600082601f830112610bf2578081fd5b8151610b7d848260208601610875565b600082601f830112610c12578081fd5b8135610b7d8482602086016108cb565b600082601f830112610c32578081fd5b8151610b7d848260208601610923565b600082601f830112610c52578081fd5b6002610b7d84828561097b565b600082601f830112610c6f578081fd5b6002610b7d8482856109bc565b600082601f830112610c8c578081fd5b8135610b7d8482602086016109fd565b600082601f830112610cac578081fd5b6004610b7d848285610a44565b600082601f830112610cc9578081fd5b6004610b7d848285610a92565b80356101b0816122e8565b80516101b0816122e8565b80356101b0816122f1565b80516101b0816122f1565b600082601f830112610d12578081fd5b8135610b7d848260208601610ae0565b600082601f830112610d32578081fd5b8151610b7d848260208601610b19565b600060808284031215610d53578081fd5b610d5d608061218e565b90506000610d6b8484610cec565b818301526020610d7d85828601610cec565b908301526040610d8f85858301611530565b90830152606083013567ffffffffffffffff811115610dac578182fd5b610db885828601610d02565b6060840152505092915050565b600060e08284031215610dd6578081fd5b610de060a061218e565b90506000610dee8484610cf7565b818301526020610e0085828601610cf7565b908301526040610e12858583016112a5565b908301526080610e24858583016112a5565b606084015260c084015167ffffffffffffffff811115610e42578283fd5b610e4e86828701610d22565b8285015250505092915050565b600060208284031215610e6c578081fd5b610e76602061218e565b9050813567ffffffffffffffff811115610e8f57600080fd5b610e9b84828501610c42565b82525092915050565b600060208284031215610eb5578081fd5b610ebf602061218e565b825190915067ffffffffffffffff811115610ed957600080fd5b610e9b84828501610c5f565b600060608284031215610ef6578081fd5b610f00606061218e565b90506000610f0e8484610cec565b908201526020610f2084848301610b4a565b908201526040610f3284848301610cd6565b9082015292915050565b600060608284031215610f4d578081fd5b610f57606061218e565b90506000610f658484610cf7565b908201526020610f7784848301610b55565b908201526040610f3284848301610ce1565b60006104208284031215610f9b578081fd5b610fa661018061218e565b90506000610fb48484610cec565b908201526020610fc684848301611530565b908201526040610fd884848301611530565b908201526060610fea8484830161136a565b908201526101a0610ffd8484830161136a565b6080830152506102e061101284828501610b60565b60a08301525061036061102784828501610b4a565b60c08301525061038061103c84828501611530565b60e0830152506103a061105184828501610b4a565b610100830152506103c061106784828501611530565b610120830152506103e061107d84828501611530565b6101408301525061040061109384828501611530565b6101608301525092915050565b600061042082840312156110b2578081fd5b6110bd61018061218e565b905060006110cb8484610cf7565b9082015260206110dd8484830161153b565b9082015260406110ef8484830161153b565b90820152606061110184848301611400565b908201526101a061111484848301611400565b6080830152506102e061112984828501610b85565b60a08301525061036061113e84828501610b55565b60c0830152506103806111538482850161153b565b60e0830152506103a061116884828501610b55565b610100830152506103c061117e8482850161153b565b610120830152506103e06111948482850161153b565b610140830152506104006110938482850161153b565b6000606082840312156111bb578081fd5b6111c5606061218e565b9050813567ffffffffffffffff8111156111de57600080fd5b6111ea84828501610c02565b825250602082013567ffffffffffffffff81111561120757600080fd5b61121384828501610bc2565b6020830152506040610f3284828501611530565b600060608284031215611238578081fd5b611242606061218e565b825190915067ffffffffffffffff81111561125c57600080fd5b61126884828501610c22565b825250602082015167ffffffffffffffff81111561128557600080fd5b61129184828501610be2565b6020830152506040610f328482850161153b565b6000604082840312156112b6578081fd5b6112c0604061218e565b905060006112ce848461153b565b908201526020610f3284848301610cf7565b6000606082840312156112f1578081fd5b6112fb606061218e565b905060006113098484610b4a565b81830152602083013567ffffffffffffffff811115611326578182fd5b61133285828601610d02565b602084015250604083013567ffffffffffffffff811115611351578182fd5b61135d85828601610ba2565b6040840152505092915050565b6000610140828403121561137c578081fd5b61138660e061218e565b905060006113948484611530565b9082015260206113a684848301611530565b9082015260406113b884848301611530565b9082015260606113ca84848301611530565b9082015260806113dc84848301611530565b9082015260a06113ee84848301611530565b9082015260c0610f3284848301610c9c565b60006101408284031215611412578081fd5b61141c60e061218e565b9050600061142a848461153b565b90820152602061143c8484830161153b565b90820152604061144e8484830161153b565b9082015260606114608484830161153b565b9082015260806114728484830161153b565b9082015260a06114848484830161153b565b9082015260c0610f3284848301610cb9565b6000608082840312156114a7578081fd5b6114b1608061218e565b9050813567ffffffffffffffff8111156114ca57600080fd5b6114d684828501610c7c565b825250602082013567ffffffffffffffff8111156114f357600080fd5b6114ff84828501610d02565b602083015250604061151384828501611525565b908201526060610f3284848301610cd6565b80356101b0816122fa565b80356101b081612303565b80516101b081612303565b60008060408385031215611558578182fd5b8183013567ffffffffffffffff811115611570578283fd5b61157c85828601610c7c565b925050602061158d85828601611530565b9150509250929050565b600080600080600060a086880312156115ae578081fd5b8086013567ffffffffffffffff8111156115c6578182fd5b6115d288828901610d02565b955050602086013567ffffffffffffffff8111156115ee578182fd5b6115fa88828901610c7c565b945050604061160b88828901611530565b935050606061161c88828901611530565b925050608061162d88828901610cec565b9150509295509295909350565b60006020828403121561164b578081fd5b8082015167ffffffffffffffff811115611663578182fd5b610b7d84828501610dc5565b600060208284031215611680578081fd5b8082015167ffffffffffffffff811115611698578182fd5b610b7d84828501610ea4565b600080600080600060a086880312156116bb578283fd5b8286013567ffffffffffffffff8111156116d3578384fd5b6116df88828901610e5b565b955050602086013567ffffffffffffffff8111156115ee578384fd5b60008060006060848603121561170f578081fd5b8084013567ffffffffffffffff811115611727578182fd5b61173386828701611496565b935050602084013567ffffffffffffffff81111561174f578182fd5b61175b86828701611496565b925050604061176c86828701610cec565b9150509250925092565b600061178283836117e3565b505060200190565b60006104978383611dae565b60006117a28383611e21565b505060600190565b60006117b68383611e58565b50506104200190565b60006104978383611f41565b60006104978383611fa7565b6000611782838361206b565b6117ec8161224f565b82525050565b6117fb81612231565b6118058184612241565b925061181082612228565b60005b8281101561183d5781516118278682611776565b9550506118338261222b565b9150600101611813565b5050505050565b600061184f82612237565b6118598185612246565b93508360208202850161186b8561222b565b845b848110156118a35783830388528151611886848261178a565b9350506118928261222b565b60209890980197915060010161186d565b50909695505050505050565b60006118ba82612237565b6118c48185612246565b93506118cf8361222b565b825b828110156118fb5781516118e58782611796565b9650506118f18261222b565b91506001016118d1565b5093949350505050565b600061191082612237565b61191a8185612246565b93506119258361222b565b825b828110156118fb57815161193b87826117aa565b9650506119478261222b565b9150600101611927565b600061195c8261223b565b6119668185612241565b93508360208202850161197885612228565b845b848110156118a3578383038852815161199384826117bf565b93505061199f8261222b565b60209890980197915060010161197a565b60006119bb82612237565b6119c58185612246565b9350836020820285016119d78561222b565b845b848110156118a357838303885281516119f284826117cb565b9350506119fe8261222b565b6020989098019791506001016119d9565b611a1881612231565b611a228184612241565b9250611a2d82612228565b60005b8281101561183d578151611a4486826117d7565b955050611a508261222b565b9150600101611a30565b6117ec8161225a565b6117ec81612228565b6000611a7782612237565b611a818185612246565b9350611a91818560208601612295565b611a9a816122c7565b9093019392505050565b6000611aaf82612237565b611ab98185612241565b9350611ac9818560208601612295565b9290920192915050565b6000611ae0602e83612246565b7f43616e6e6f74206d75746174652042277320707265436f6d6d697420696e205b918101919091527f412072657665616c5d206d6f76650000000000000000000000000000000000006020820152604001919050565b6000611b43603283612246565b7f43616e6e6f74206d75746174652041277320707265436f6d6d697420696e205b918101919091527f4220636f6d6d69746d656e745d206d6f766500000000000000000000000000006020820152604001919050565b6000611ba6604683612246565b7f4e6577207374617465206d75737420626520636f6d7075746564206261736564918101919091527f206f6e20707265436f6d6d6974206d6f76657320696e205b422072657665616c60208201527f5d206d6f766500000000000000000000000000000000000000000000000000006040820152606001919050565b6000611c2f603383612246565b7f43616e6e6f74206d7574617465207468652067616d6520737461746520696e20918101919091527f5b4220636f6d6d69746d656e745d206d6f7665000000000000000000000000006020820152604001919050565b6000611c92603683612246565b7f4f6e6c792074776f207061727469636970616e7420636f6d6d69742f72657665918101919091527f616c2067616d65732061726520737570706f72746564000000000000000000006020820152604001919050565b6000611cf5602f83612246565b7f43616e6e6f74206d7574617465207468652067616d6520737461746520696e20918101919091527f5b412072657665616c5d206d6f766500000000000000000000000000000000006020820152604001919050565b6000611d58603383612246565b7f43616e6e6f74206d7574617465207468652067616d6520737461746520696e20918101919091527f5b4120636f6d6d69746d656e745d206d6f7665000000000000000000000000006020820152604001919050565b80516000906080840190611dc28582611a63565b506020830151611dd56020860182611a63565b506040830151611de8604086018261206b565b5060608301518482036060860152611e008282611a6c565b95945050505050565b8051602080845260009190840190611e008282611951565b8051611e2d8382611a63565b506020810151611e4060208401826117e3565b506040810151611e536040840182611a5a565b505050565b8051611e648382611a63565b506020810151611e77602084018261206b565b506040810151611e8a604084018261206b565b506060810151611e9d6060840182611fed565b506080810151611eb16101a0840182611fed565b5060a0810151611ec56102e08401826117f2565b5060c0810151611ed96103608401826117e3565b5060e0810151611eed61038084018261206b565b50610100810151611f026103a08401826117e3565b50610120810151611f176103c084018261206b565b50610140810151611f2c6103e084018261206b565b50610160810151611e5361040084018261206b565b8051606080845260009190840190611f598282611905565b91505060208301518482036020860152611f7382826118af565b9150506040830151610b11604086018261206b565b8051611f94838261206b565b506020810151611e536020840182611a63565b80516000906060840190611fbb85826117e3565b5060208301518482036020860152611fd38282611a6c565b91505060408301518482036040860152611e008282611844565b8051611ff9838261206b565b50602081015161200c602084018261206b565b50604081015161201f604084018261206b565b506060810151612032606084018261206b565b506080810151612045608084018261206b565b5060a081015161205860a084018261206b565b5060c0810151611e5360c0840182611a0f565b6117ec81612283565b60006104978284611aa4565b6020808252810161049781846119b0565b602081016101b08284611a5a565b604081016120ad8285611a63565b6104976020830184611a63565b606080825281016120cb8186611a6c565b905081810360208301526120df81856119b0565b9050610b7d6040830184611a5a565b602080825281016101b081611ad3565b602080825281016101b081611b36565b602080825281016101b081611b99565b602080825281016101b081611c22565b602080825281016101b081611c85565b602080825281016101b081611ce8565b602080825281016101b081611d4b565b602080825281016104978184611e09565b606080825281016120cb8186611e09565b604081016101b08284611f88565b60405181810167ffffffffffffffff811182821017156121b0576121b06122c5565b604052919050565b600067ffffffffffffffff8211156121d2576121d26122c5565b5060200290565b600067ffffffffffffffff8211156121f3576121f36122c5565b5060209081020190565b600067ffffffffffffffff821115612217576122176122c5565b506020601f91909101601f19160190565b90565b60200190565b50600490565b5190565b50600290565b919050565b90815260200190565b60006101b08261225f565b151590565b73ffffffffffffffffffffffffffffffffffffffff1690565b65ffffffffffff1690565b60ff1690565b82818337506000910152565b60005b838110156122b0578181015183820152602001612298565b838111156122bf576000848401525b50505050565bfe5b601f01601f191690565b6122da8161224f565b81146122e557600080fd5b50565b6122da8161225a565b6122da81612228565b6122da81612278565b6122da8161228356fea264697066735822122092c247f4055cc572763953a522f405c733ebd2bba2de58f46ef77adf75c5864d64736f6c63430007060033",
  "devdoc": {
    "kind": "dev",
    "methods": {
      "updateOutcomeFavourPlayer((address,bytes,(bytes32,uint256,uint8,bytes)[])[],uint8)": {
        "details": "Take an old outcome and update it to favour a given player       Assumes the outcome allocations can be indexed by the playerIndex",
        "params": {
          "outcome": "An outcome object to be rebalanced",
          "playerIndex": "Zero based index of the player to be assigned the favoured outcome"
        },
        "returns": {
          "_0": "The outcome resulting in a rebalance to the given player"
        }
      },
      "validTransition(((address,bytes,(bytes32,uint256,uint8,bytes)[])[],bytes,uint48,bool),((address,bytes,(bytes32,uint256,uint8,bytes)[])[],bytes,uint48,bool),uint256)": {
        "details": "Override of IForceMove validTransition for the randomness protocol"
      }
    },
    "version": 1
  },
  "userdoc": {
    "kind": "user",
    "methods": {},
    "version": 1
  },
  "storageLayout": {
    "storage": [],
    "types": null
  }
}